:020000020000FC
:0C0000000C9434000C946A000C947B00FB
:100068000FEF0DBF08E00EBF0AE00093690003E040
:100078000DBB78940FEF07B9002708B9002708943B
:10008800001F0E94620008B905FD0C944D000C94F5
:10009800440007950E94620008B901FD0C944200D3
:1000A8000C944D00FFCF4F935F9341ED5FEF5A954E
:1000B800F1F74A95D9F75F914F9108954F9342E32D
:1000C8000E9457004A95E1F74F9108950F934FE02A
:1000D800403059F001E208B90E946200002708B9CF
:1000E8000E9462004A950C946C000F9118954F93EA
:1000F80040E048B90E9462004F3319F043950C94D0
:060108007D004F911895E7
:00000001FF
